:020000040000FA
:0600000002EF75F0120092
:020006001200E6
:060008001CEF66F012007F
:02000E000004EC
:04001000A300000247
:020014001200D8
:020016001200D6
:06001800CDEF65F01200BF
:02001E000900D7
:100020006AEA0000B00300000100000068EA000076
:10003000AD0300000200000071C30000AF03000028
:100040000100000064EA0000A503000004000000B5
:1000500062EA0000AB030000020000005AEA000060
:10006000990300000800000058EA0000A9030000FE
:100070000200000007E900005F0F0000010000001F
:0C00800054EA0000A1030000040000008E
:04008C0001014551D8
:100090000301A95D01E148D0FE0EA95D1FE01C0E21
:1000A000E66EE66A290EE66E010EE66EA9511C0D9B
:1000B000F3CF14F0F4CF15F0000E14260F0E152216
:1000C00014C0E6FF15C0E6FF3FEC6FF0166E060E9B
:1000D000E15C02E2E16AE552E16E165045C1A9F326
:1000E000FE0E0101455D01E11FD01C0EE66EE66AC1
:1000F00045511C0DF3CF14F0F4CF15F0000E14266B
:100100000F0E152214C0E6FF15C0E6FF290EE66E9D
:10011000010EE66E3FEC6FF0166E060EE15C02E239
:10012000E16AE552E16E165012000301A951AA5D81
:1001300001E14FD0FE0EAA5D32E0270E0101C26F31
:10014000C36B0101010EC16F0101020EBF6F010EF1
:10015000C06F0301AA511C0DF3CFE9FFF4CFEAFFF2
:10016000000EE9260F0EEA221B0EE926000EEA22F7
:10017000EFCFBEF1AA511C0DF3CFE9FFF4CFEAFF98
:10018000000EE9260F0EEA22EECFBCF1EFCFBDF153
:100190000101270EBC5F000EBD5B2AEC20F0A9C355
:1001A000AAF3270E0101C26FC36B44C1C1F129C17B
:1001B000BFF12AC1C0F10101BF5F000EC05B0101A8
:1001C000010EBE6F0101020EBC6F010EBD6F2AEC65
:1001D00020F012000C01C20E1D6F0F0E1E6F0101E8
:1001E000005101110FE1F5EC52F006C000F107C01B
:1001F00001F1FF0E01010017070E0117000E002785
:10020000040E01233C0EE66EE66AE66A000EE66E18
:100210000E0EE66E8DEC6FF0146E050EE15C02E2E0
:10022000E16AE552E16E14500C01156B146B145128
:10023000146E156A030E145C000E155801E3A8D065
:1002400014CC45F123DF0C011451060DF3CFF6FF5A
:10025000F4CFF7FF360EF626EA0EF722F62A000E46
:10026000F7220800F5CF1CFC1451060DF3CFF6FF62
:10027000F4CFF7FF360EF626EA0EF722020EF62628
:10028000000EF7220900F5CF16FC0A00F5CF17FC87
:100290001451060DF3CFF6FFF4CFF7FF360EF62616
:1002A000EA0EF722040EF626000EF7220900F5CF1B
:1002B00018FC0A00F5CF19FC1C5101E068D01DCCD8
:1002C0001AFC1ECC1BFC270E176A1625166E17513A
:1002D0001722010E1626000E172216501825146E2E
:1002E00017501921156E010E1426000E15221450F8
:1002F0001D2715501E231DCC14F01ECC15F0166AB8
:10030000176AD880FE0E14541E0E1554000E165493
:10031000000E175401E2EFD71CCC44F1270E0C015C
:100320001A250101296F000E0C011B2101012A6F02
:1003300029510C01162501012B6F2A510C0117219F
:1003400001012C6F010E2B27000E2C232B510C01C9
:10035000182501012D6F2C510C01192101012E6F5F
:100360000D0E3F6F4097E1DE0C011451060DF3CFE7
:10037000F6FFF4CFF7FF360EF626EA0EF722080056
:10038000F5CF28F173EC16F00C01142B50D7FFD7E2
:1003900012000C012B6B2B51146E156A030E145CAA
:1003A000000E155801E3B7D02BCC45F16FDE0D0ED2
:1003B00001013F5D01E0ACD0B8DE01014D51285D87
:1003C00001E0A6D0180E256F020E266F4A510CE1EF
:1003D0004BC112F14CC113F14087040E3F6F4BC16A
:1003E00042F14CC143F191D0000E005D040E015961
:1003F00006E3880ED8800055130E015503E2006B0A
:10040000040E016F00C112F101C113F1002B000EA7
:1004100001234BC110F14CC111F14EEC73F006C039
:1004200037F107C038F108C039F109C03AF10101CC
:1004300040894A51040A26E0070A01E066D0485183
:100440004625166E49514721176E16504B25146EDE
:1004500017504C21156E14501219426F1550131974
:10046000436F46C118F147C119F148C11AF149C19A
:100470001BF1276B270E026F036B046B056B020EDB
:100480003F6F43D046C1E9FF47C1EAFF020EE926AC
:10049000000EEA22EECF18F0EFCF19F046C1E9FFC7
:1004A00047C1EAFF1850EE24166E1950EE20176E61
:1004B00016504B25146E17504C21156E14501219FE
:1004C000426F15501319436F0A0EE66EE66A46C175
:1004D000E6FF47C1E6FF180EE66E010EE66E3FEC42
:1004E0006FF0146E060EE15C02E2E16AE552E16E25
:1004F00014500101050E3F6F0101010EAB6F0101A8
:10050000020EAA6F12EC10F000D00C012B5105D096
:100510000C012B2B40D7FE0E00D012004EC145F12E
:10052000B5DD010141A903D04199010E02D0000EB1
:1005300000D012004FC145F1A9DD070E01013F5D5A
:1005400002E0000E01D0010E00D0120050C145F1B2
:100550009DDD33C135F134C136F101013F51080A47
:1005600047E0010A45E0050A43E0020A3EE0050AC9
:1005700026E00D0A0EE0010A0CE0070A07E0020A75
:1005800005E0010A03E0060A01E032D073EC16F040
:1005900039D00101010EAB6F0101110EAA6F12ECEF
:1005A00010F001011451151101E106D00E512F195F
:1005B00002E10F513019EDE1080E3F6F23D0010128
:1005C000010EAB6F0101110EAA6F12EC10F00101C8
:1005D0001451151101E106D00E512F1902E10F51EE
:1005E0003019EDE10C0E3F6F0DD00D0E3F6F0AD0AC
:1005F0000101AB6B0101140EAA6F12EC10F073EC49
:1006000016F000D0120051C145F140DD01014097C4
:1006100051C150F1A6EF02F052C145F137DD85DD41
:100620000A0EE66EE66A180EE66E010EE66E530ED0
:10063000E66E010EE66E3FEC6FF0146E060EE15CA6
:1006400002E2E16AE552E16E145010C15DF111C1A0
:100650005EF1530E146E010E156E14C0F3FF15C03B
:10066000F4FF00D012005FC145F110DD5EDD010135
:100670000E512F1902E10F51301908E00101010E4E
:10068000AB6F0101100EAA6F12EC10F0120060C1E6
:1006900045F1FCDC3FC145FC070E0C01455D06E061
:1006A0000B0E455D03E0F36AF46A2FD0010131516E
:1006B0002F5D325130591BE329512B5D166E2C51A1
:1006C0002A55176E1606000E175A31512F5D186EF7
:1006D00030513255196E1850165C146E1950175857
:1006E000156E14C0F3FF15C0F4FF0FD00ED02F51BC
:1006F000315D146E32513055156E1406000E155AC8
:1007000014C0F3FF15C0F4FF00D0120061C145F121
:10071000BDDC61C160F1BBDFF3CF05FCF4CF06FCAB
:100720000C010551061103E1000E63D008D0010E43
:10073000051901E1065103E161C15FF194DF010197
:100740004151010B14E129512B5D146E2C512A5596
:10075000156ED890153214320C010551145C0651F7
:10076000155805E361C15FF17EDF01014181010E92
:100770000101C26FC36B0101C16F0101620EBF6F46
:10078000010EC06F44C1BEF12FC1BCF130C1BDF13B
:100790002AEC20F001012F2B000E30232B512F5D6E
:1007A0002C51305904E329C12FF12AC130F10C0139
:1007B000010E051901E1065104E161C15FF153DF4A
:1007C00016D0010140BB13D0408B59EC73F006C02A
:1007D00014F007C015F0166A176A060E1426000EEC
:1007E00015221622172214C03BF115C03CF1010E50
:1007F00000D012000C01AE6BAF6B63C145F146DC5B
:1008000063C160F144DFF3CFACFCF4CFADFC0C016D
:10081000AC51AD1106E163C15FF125DFF36AF46A03
:10082000ADD0ACCCAAFCADCCABFCAC510101665D4B
:100830000C01AD510101675904E266C1AAFC67C110
:10084000ABFC4151010B14E129512B5D146E2C516D
:100850002A55156ED890153214320C01AC51145C27
:10086000AD51155805E363C15FF1FDDE0101418122
:1008700001012F510C01AA25146E010130510C0108
:10088000AB21156E01012B51145C2C5115582DE331
:100890002F512B5D0C01AE6F010130512C590C0111
:1008A000AF6FAECCC2F1AFCCC3F10101010EC16F8D
:1008B00064C1BFF165C1C0F144C1BEF12FC1BCF13B
:1008C00030C1BDF12AEC20F00C01AE5101016427CA
:1008D0000C01AF51010165230C01AE51AA5FAF516C
:1008E000AB5B29C12FF12AC130F1AACCC2F1ABCC4C
:1008F000C3F10101010EC16F64C1BFF165C1C0F157
:1009000044C1BEF12FC1BCF130C1BDF12AEC20F0D1
:100910000C01AA5101012F270C01AB510101302319
:100920000C01AC510101665D0C01AD51010167592B
:1009300004E363C15FF197DE15D040BB13D0408B59
:1009400059EC73F006C014F007C015F0166A176A68
:10095000060E1426000E15221622172214C03BF193
:1009600015C03CF10C01AA51AE25146EAB51AF215C
:10097000156E14C0F3FF15C0F4FF00D012000C0177
:10098000166B176B68C145F146EC00F068C160F169
:100990007EDEF3CF14FCF4CF15FC0C0114511511BD
:1009A00006E168C15FF15FDEF36AF46AA8D0010175
:1009B0004151010B14E129512B5D146E2C512A5524
:1009C000156ED890153214320C011451145C155167
:1009D000155805E368C15FF146DE0101418114CC81
:1009E00012FC15CC13FC0C01145101016B5D0C01C0
:1009F000155101016C5904E26BC112FC6CC113FC6E
:100A00002F510C011225146E010130510C011321DC
:100A1000156E01012B51145C2C5115582AE32F51EE
:100A20002B5D0C01166F010130512C590C01176F11
:100A300016CCC9F117CCCAF169C1C7F16AC1C8F1B6
:100A400044C1C6F12FC1C4F130C1C5F192EC20F010
:100A50000C011651010169270C01175101016A238C
:100A60000C011651125F1751135B29C12FF12AC1D6
:100A700030F112CCC9F113CCCAF169C1C7F16AC116
:100A8000C8F144C1C6F12FC1C4F130C1C5F192EC27
:100A900020F00C01125101012F270C01135101010B
:100AA00030230C01145101016B5D0C011551010142
:100AB0006C5904E368C15FF1D6DD15D040BB13D09B
:100AC000408B59EC73F006C014F007C015F0166A9D
:100AD000176A060E1426000E15221622172214C0BD
:100AE0003BF115C03CF10C0112511625146E135147
:100AF0001721156E14C0F3FF15C0F4FF00D01200CB
:100B00006EC1E6FF6FC1E6FF17EC70F0E552E552EB
:100B1000F3CF66F1F4CF67F16EC164F16FC165F197
:100B20006DC163F167DE01016E51F324146E6F51E4
:100B3000F420156E14C0F3FF15C0F4FF00D01200AE
:100B400071C116F072C117F0186A16C0E6FF17C01F
:100B5000E6FF18C0E6FF25EC70F0E552E552E552DD
:100B600007C06BF108C06CF171C169F172C16AF123
:100B700070C168F104DF01017151F324146E7251E8
:100B8000F420156E14C0F3FF15C0F4FF00D012005E
:100B900073C145F146EC00F0010129512B5D0C01B8
:100BA000026F01012A512C590C01036F010E025FE3
:100BB000000E035B73C160F16ADDF3CF00FCF4CF7C
:100BC00001FC0C010051025D146E03510155156EBC
:100BD00014C0F3FF15C0F4FF00D0120074C175F10A
:100BE00018D8F3CF14F0F4CF15F01450151010E00E
:100BF00074C145F146EC00F033C135F134C136F132
:100C00000101010EAB6F0101100EAA6F12EC10F082
:100C1000120075C145F146EC00F001013551335D1C
:100C2000365134590CE33551335D146E3451365519
:100C3000156E14C0F3FF15C0F4FF1CD01BD0355146
:100C40002D5D166E2E513655176E010E1626000EAE
:100C500017222B51335D186E34512C55196E1650D6
:100C60001824146E17501920156E14C0F3FF15C008
:100C7000F4FF00D0120076C175F1CBDFF3CF39FC61
:100C8000F4CF3AFC0C0139513A1102E1000E48D080
:100C900076C145F146EC00F001017751781112E080
:100CA000010E0101C26FC36B44C1C1F135C1BFF177
:100CB00036C1C0F10101BE6F77C1BCF178C1BDF191
:100CC0002AEC20F00101352B000E362335512D5D25
:100CD00036512E5904E22BC135F12CC136F10C01ED
:100CE000010E391901E13A5103E10101418516D0A4
:100CF000010140BB13D0408B59EC73F006C014F0D7
:100D000007C015F0166A176A1F0E1426000E15226A
:100D10001622172214C03BF115C03CF1010E00D081
:100D200012000C015E6B5F6B79C175F172DFF3CF5E
:100D30005CFCF4CF5DFC0C015C515D1103E1F36AD6
:100D4000F46AA1D079C145F146EC00F001017C5173
:100D50000C015C5D01017D510C015D5904E25CCC2C
:100D60007CF15DCC7DF1010135517C25146E36514D
:100D70007D21156E14502D5D15502E5938E23551D8
:100D80002D5D0C015E6F010136512E590C015F6F14
:100D9000010E5E27000E5F2301017A517B111BE0DB
:100DA0005ECCC2F15FCCC3F144C1C1F135C1BFF12A
:100DB00036C1C0F10101010EBE6F7AC1BCF17BC129
:100DC000BDF12AEC20F00C015E5101017A270C01E3
:100DD0005F5101017B230C015E5101017C5F0C011D
:100DE0005F5101017D5B2BC135F12CC136F17A5188
:100DF0007B1113E07CC1C2F17DC1C3F144C1C1F1DB
:100E000035C1BFF136C1C0F10101010EBE6F7AC11B
:100E1000BCF17BC1BDF12AEC20F001017C513527EA
:100E20007D5136230C015E5101017C270C015F517D
:100E300001017D237C510C015C5D146E5D5101014B
:100E40007D55156E14507C5D15507D5902E341852A
:100E500015D040BB13D0408B59EC73F006C014F092
:100E600007C015F0166A176A1F0E1426000E152209
:100E70001622172214C03BF115C03CF17CC1F3FFD0
:100E80007DC1F4FF00D012007EC145F146EC00F0B8
:100E900001012B512D5D0C013B6F01012C512E598D
:100EA0000C013C6F7EC175F1B4DEF3CF39FCF4CF99
:100EB0003AFC0C0139513B5D146E3C513A55156EAC
:100EC00014C0F3FF15C0F4FF00D0120001018251DD
:100ED000831103E1F36AF46AABD07FC145F146ECBC
:100EE00000F07FC175F195DEF3CF02FCF4CF03FC77
:100EF000010184518225146E85518321156E0C01E8
:100F00001450025D155003590BE2010184510C018C
:100F1000025D0101826F85510C0103590101836F4C
:100F20000101355184250C01006F010136518521E5
:100F30000C01016F005101012D5D0C0101510101F6
:100F40002E590FE22B512D5D146E2E512C55156E1E
:100F5000010E1426000E152214500C01005F1550CE
:100F6000015B0C01005101012D5D0C01046F015169
:100F700001012E590C01056F010E0427000E0523F7
:100F8000010182510C01045D010183510C010559DD
:100F900014E382C1C2F183C1C3F144C1C1F100CCE9
:100FA000BFF101CCC0F10101010EBE6F80C1BCF1E7
:100FB00081C1BDF12AEC20F036D004CCC2F105CCC1
:100FC000C3F144C1C1F100CCBFF101CCC0F10101BA
:100FD000010EBE6F80C1BCF181C1BDF12AEC20F0D1
:100FE0000C0104510101825D0101C26F0C01055128
:100FF000010183590101C36F44C1C1F12BC1BFF18C
:101000002CC1C0F10101010EBE6F010180510C0124
:1010100004250101BC6F010181510C010521010171
:10102000BD6F2AEC20F082C1F3FF83C1F4FF00D032
:10103000120087C184F188C185F1010E0101826F20
:10104000836B0101060E806F0C0E816F86C17FF1EC
:101050003DDF0C01065100D0120001018C518D11B1
:1010600003E1F36AF46AB2D189C145F146EC00F0BC
:1010700089C175F1CEDD01018E51F35C0C013B6F2E
:1010800001018F51F4580C013C6F01018C510C018E
:101090003B5D01018D510C013C5903E2F368F4689A
:1010A00095D10101905191110DE00C013B510101CD
:1010B000905D0C013C510101915904E290C13BFC4F
:1010C00091C13CFC35518E250C013F6F0101365119
:1010D0008F210C01406F3F5101012D5D0C014051EA
:1010E00001012E590FE22B512D5D146E2E512C55FE
:1010F000156E010E1426000E152214500C013F5FD0
:101100001550405B3FCC39FC40CC3AFC0C013F51C0
:1011100001012D5D0C013D6F405101012E590C0163
:101120003E6F010E3D27000E3E238EC13FFC8FC156
:1011300040FC8CC141FC8DC142FC8AC143FC8BC187
:1011400044FC01018AC1E9FF8BC1EAFF8A2B8B2392
:10115000EFCF46FC0C01486B0101925109E0610E92
:101160000C01465D05E346517A0802E3E00E46278E
:101170000C01200E476F47513D5D000E3E5902E2C3
:101180003DCC47FC47513B5D000E3C5902E23BCC55
:1011900047FC47510101C26FC36B44C1C1F139CC57
:1011A000BFF13ACCC0F10101010EBE6F0101490E41
:1011B000BC6F0C0EBD6F2AEC20F00C014751146E71
:1011C000156A1450392715503A234751146E156A81
:1011D00014503D5F15503E5B3D513E1106E12BC161
:1011E00039FC2CC13AFC3D693E690101925101E193
:1011F00081D00C01456B4751455D01E37AD04551E3
:10120000EA6A490FE96E0C0EEA22EFCF14F0610E84
:10121000145C13E34551EA6A490FE96E0C0EEA22A9
:10122000EF507A080AE3E00E146E4551EA6A490F5E
:10123000E96E0C0EEA221450EF264551EA6A490F76
:10124000E96E0C0EEA22EF50465D33E101018C0796
:10125000000E8D5B8C518D1117E10C0141513F5DEA
:10126000166E40514255176E455100011624146EFA
:10127000000E1720156E010E1426000E152214C044
:10128000F3FF15C0F4FFA2D08AC1E9FF8BC1EAFFCA
:101290008A2B000E8B23EFCF46FC0C01010E486F0A
:1012A000610E465D05E346517A0802E3E00E4627EB
:1012B0001ED041CC8CF142CC8DF1485118E043CC8A
:1012C0008AF144CC8BF101018AC1E9FF8BC1EAFFAD
:1012D0008A2B000E8B23EFCF46FC610E0C01465D7E
:1012E00005E346517A0802E3E00E4627486B452B9A
:1012F00082D751D00C01456B4751455D4CE24551B9
:10130000EA6A490FE96E0C0EEA22EF50465D2BE1C6
:1013100001018C07000E8D5B8C518D1117E10C01C2
:1013200041513F5D166E40514255176E45510001C7
:101330001624146E000E1720156E010E1426000ED2
:10134000152214C0F3FF15C0F4FF40D08AC1E9FF95
:101350008BC1EAFF8A2B000E8B23EFCF46FC0C01DA
:10136000010E486F16D041CC8CF142CC8DF1485122
:1013700010E043CC8AF144CC8BF101018AC1E9FF32
:101380008BC1EAFF8A2B000E8B23EFCF46FC0C01AA
:10139000486B452BB1D74751146E156A14503B5F0B
:1013A00015503C5B01018C510C013B5D01018D51DD
:1013B0000C013C5903E2F368F46808D04751146EFD
:1013C000156A14503F2715504023D2D61200010150
:1013D0009651971103E1F36AF46AB7D193C145F1CD
:1013E00046EC00F093C175F114DC01019851F35CF7
:1013F0000C01026F01019951F4580C01036F0101B6
:1014000096510C01025D010197510C01035903E251
:10141000F368F4689AD101019A519B110DE00C0117
:10142000025101019A5D0C01035101019B5904E233
:101430009AC102FC9BC103FC355198250C01066F33
:101440000101365199210C01076F065101012D5DF3
:101450000C01075101012E590FE22B512D5D146E25
:101460002E512C55156E010E1426000E1522145007
:101470000C01065F1550075B06CC00FC07CC01FC95
:101480000C01065101012D5D0C01046F0751010192
:101490002E590C01056F010E0427000E052398C17B
:1014A00006FC99C107FC96C108FC97C109FC94C1D0
:1014B0000AFC95C10BFC010194C1F6FF95C1F7FF31
:1014C000942B95230800F5CF0DFC0C010F6B010147
:1014D0009C5109E0610E0C010D5D05E30D517A0888
:1014E00002E3E00E0D270C01200E0E6F0E51045D7D
:1014F000000E055902E204CC0EFC0E51025D000EF6
:10150000035902E202CC0EFC0E510101C26FC36B03
:1015100044C1C1F100CCBFF101CCC0F10101010E09
:10152000BE6F0101100EBC6F0C0EBD6F2AEC20F0D7
:101530000C010E51146E156A14500027155001232A
:101540000E51146E156A1450045F1550055B04515A
:10155000051106E12BC100FC2CC101FC04690569E1
:1015600001019C5101E183D00C010C6B0E510C5D0B
:1015700001E37CD00C51EA6A100FE96E0C0EEA22EE
:10158000EFCF14F0610E145C13E30C51EA6A100FF4
:10159000E96E0C0EEA22EF507A080AE3E00E146EB0
:1015A0000C51EA6A100FE96E0C0EEA221450EF2675
:1015B0000C51EA6A100FE96E0C0EEA22EF500D5D35
:1015C00034E101019607000E975B9651971117E1E0
:1015D0000C010851065D166E07510955176E0C5126
:1015E00000011624146E000E1720156E010E14262D
:1015F000000E152214C0F3FF15C0F4FFA6D094C14D
:10160000F6FF95C1F7FF942B000E95230800F5CF48
:101610000DFC0C01010E0F6F610E0D5D05E30D5108
:101620007A0802E3E00E0D271FD008CC96F109CC12
:1016300097F10F5119E00ACC94F10BCC95F101010F
:1016400094C1F6FF95C1F7FF942B000E9523080077
:10165000F5CF0DFC610E0C010D5D05E30D517A080F
:1016600002E3E00E0D270F6B0C2B80D753D00C013B
:101670000C6B0E510C5D4EE20C51EA6A100FE96ED4
:101680000C0EEA22EF500D5D2CE101019607000ED1
:10169000975B9651971117E10C010851065D166E84
:1016A00007510955176E0C5100011624146E000ED7
:1016B0001720156E010E1426000E152214C0F3FF1C
:1016C00015C0F4FF42D094C1F6FF95C1F7FF942BEB
:1016D000000E95230800F5CF0DFC0C01010E0F6FD5
:1016E00017D008CC96F109CC97F10F5111E00ACC34
:1016F00094F10BCC95F1010194C1F6FF95C1F7FF70
:10170000942B000E95230800F5CF0DFC0C010F6BF8
:101710000C2BAFD70E51146E156A1450025F155082
:10172000035B010196510C01025D010197510C010F
:10173000035903E2F368F46808D00E51146E156A79
:101740001450062715500723CED61200A3C192F1DC
:10175000A1C190F1A2C191F19FC18EF1A0C18FF101
:10176000010E01018C6F8D6B01019E0E8A6F010EBF
:101770008B6F9DC189F171DC00D012000C011C6BD4
:101780001C51146E156A030E145C000E155801E30B
:1017900004D31CCC45F146EC00F00C011F6B1D6B13
:1017A0001E6B01014151020B03E14151040B0EE09C
:1017B000A9EC58F000090AE00C01100E1F6F01019E
:1017C0004151040B01E0010E0C011D6F010140AB02
:1017D00013D059EC73F0010106503B5D146E0750B5
:1017E0003C59156E153404E214500008000E1554CF
:1017F00003E30C01100E1F6F010140AD13D059EC33
:1018000073F0010106503D5D146E07503E59156E90
:10181000153404E214500008000E155403E30C01C3
:10182000100E1F6F0B0E01013F5D16E159EC73F0B6
:10183000010106503D5D146E07503E59156E15347A
:1018400004E214500008000E155406E30C01110EBA
:101850001F6F01010C0E3F6F040E3F5D01E00ED1C2
:101860000C01206B216B030E205D000E215901E35A
:1018700005D120CCE9FF21CCEAFF140EEA02F3CF18
:10188000EAFFE902F3CFE9FFF450EA26000EE92669
:101890000E0EEA22100EE926000EEA22EE50ED109E
:1018A00001E1ECD020CCE9FF21CCEAFF140EEA02E2
:1018B000F3CFEAFFE902F3CFE9FFF450EA26000E86
:1018C000E9260E0EEA22100EE926000EEA22EECFDD
:1018D00014F0EFCF15F001014251141802E1435109
:1018E000151801E0C6D095EC00F00A0EE66EE66A27
:1018F00020CCE9FF21CCEAFF140EEA02F3CFEAFF85
:10190000E902F3CFE9FFF450EA26000EE9260E0EB5
:10191000EA22E9CF14F0EACF15F014C0E6FF15C0B3
:10192000E6FF180EE66E010EE66E3FEC6FF0166EE7
:10193000060EE15C02E2E16AE552E16E165020CC4F
:10194000E9FF21CCEAFF140EEA02F3CFEAFFE90235
:10195000F3CFE9FFF450EA26000EE9260E0EEA2244
:101960000A0EE926000EEA22EECF10F1EDCF11F1BA
:1019700020CCE9FF21CCEAFF140EEA02F3CFEAFF04
:10198000E902F3CFE9FFF450EA26000EE9260E0E35
:10199000EA220C0EE926000EEA22EECF0AF1EECF83
:1019A0000BF1EECF0CF1EFCF0DF101010A2B0B2360
:1019B0000C230D231A511825166E1B511921176E71
:1019C00016501025146E17501121156E145012194F
:1019D000426F15501319436F0C01120E1F6F010156
:1019E000060E3F6F20CCC2F121CCC3F10101020EE3
:1019F000D880C257000EC357140EC303F3CFC3F1F0
:101A0000C203F3CFC2F1F450C3270101010EC16F2D
:101A10000C0120250101BF6F000E0C0121210101E5
:101A2000C06F140EC003F3CFC0F1BF03F3CFBFF1FB
:101A3000F450C027000EBF270E0EC0230101010E77
:101A4000BE6F140E086E096A20CC0DF021CC0EF08A
:101A5000A8EC74F006C0BCF107C0BDF1000E010196
:101A6000BC270E0EBD232AEC20F00E01386B396B1B
:101A700005D00C01202B000E2123F5D60C011F519F
:101A80000AE01D5102E0000E01D0010E0101AB6F12
:101A90001FCCAAF1C7DA010140B94ED0070E3F5D55
:101AA0004AE14EEC73F001013751065C146E385177
:101AB0000758156E39510858166E3A510958176E65
:101AC0000001800E171401E065D101014051070BA0
:101AD000060815E14051080B01E0010E0C011F6FD3
:101AE0001CCC50F1A6EC02F01CCC50F1A6EC02F09C
:101AF0000C011F5103E101010E0E3F6F4BD195EC1C
:101B000000F00101020EAB6F0101100EAA6F8ADA1C
:101B10004EEC73F006C037F107C038F108C039F158
:101B200009C03AF1740E01013727350E3823060E2D
:101B30003923000E3A232ED14EEC73F001013751B8
:101B4000065C146E38510758156E39510858166ED8
:101B50003A510958176E0001800E171401E01AD18E
:101B600095EC00F001013F510C0A01E1B2D0060AE8
:101B700001E1A0D0030A01E197D0010A01E185D07B
:101B80000F0A74E00C0A72E00D0A5BE0030A46E0FB
:101B9000060A14E0010A01E0ABD059EC73F006C06C
:101BA0003BF107C03CF10301180E6F6F010E706F1F
:101BB00017EC6AF00101030E3F6F9AD003011C0E6F
:101BC000736F010E746F0301180E716F010E726F47
:101BD0005BEC6AF000091AE159EC73F001013B512A
:101BE000065C146E3C510758156E1450025D15507A
:101BF00003590BE2060E275D06E2272BD890023729
:101C0000033704370537020E3F6F72D00C01020E06
:101C10001F6F1D6B0101050E3F6F6AD00C01020E94
:101C20001F6F010E1D6F040E0101275D09E3040EF5
:101C3000276F200E026FEF0E036F090E046F056B06
:101C400057D0020E275D06E20C01120E1F6F010E27
:101C50001D6F0BD040A706D00C01140E1F6F010E94
:101C60001E6F03D00C01020E1F6F42D0050E275DC0
:101C700006E20C01100E1F6F010E1D6F05D0080E3D
:101C80003F6F0C01110E1F6F33D0050E275D06E26A
:101C90000C01110E1F6F010E1D6F05D00C01140EEB
:101CA0001F6F010E1E6F24D00C01140E1F6F010E4A
:101CB0001E6F1ED0050E275D06E20C01100E1F6F71
:101CC000010E1D6F05D00C01140E1F6F010E1E6F4B
:101CD0000FD0050E275D06E20C01110E1F6F010EDD
:101CE0001D6F05D00C01140E1F6F010E1E6F00D06A
:101CF0000C011F514AE01D5142E00101272BD890F1
:101D0000023703370437053731510E5D0C01206F60
:101D1000010132510F590C01216F010131510E5D4A
:101D200032510F590BE229512B5D146E2C512A555B
:101D3000156E14500C0120271550212320CC14F0CF
:101D400021CC15F0166A176A14500101065F155070
:101D5000075B1650085B1750095B0C01205101010D
:101D600014270C0121510101152331C10EF132C19B
:101D70000FF10101AB6B1FCCAAF154D906D00101C0
:101D8000010EAB6F1FCCAAF14DD90C011E5102E020
:101D900073EC16F00C011C2BF3D4206B216B030E9B
:101DA000205D000E215901E399D020CCE9FF21CC20
:101DB000EAFF140EEA02F3CFEAFFE902F3CFE9FFEC
:101DC000F450EA26000EE9260E0EEA22100EE9264D
:101DD000000EEA22EE50ED1001E180D020CCE9FFA8
:101DE00021CCEAFF140EEA02F3CFEAFFE902F3CFB7
:101DF000E9FFF450EA26000EE9260E0EEA22120E42
:101E0000E926000EEA22EECF16F0EFCF17F016C04B
:101E1000E6FF17C0E6FF59EC73F0E552E7CF17F085
:101E2000E552E7CF16F01650065C146E17500758AF
:101E3000156EDC0ED8801454010E15544AE220CCE5
:101E4000C2F121CCC3F10101020ED880C257000EAD
:101E5000C357140EC303F3CFC3F1C203F3CFC2F1D0
:101E6000F450C3270101010EC16F0C0120250101AF
:101E7000BF6F000E0C0121210101C06F140EC003C1
:101E8000F3CFC0F1BF03F3CFBFF1F450C027000E72
:101E9000BF270E0EC0230101010EBE6F140E086E87
:101EA000096A20CC0DF021CC0EF0A8EC74F006C02D
:101EB000BCF107C0BDF1000E0101BC270E0EBD2311
:101EC0002AEC20F00E01386B396B0C012007000E54
:101ED000215B0C01202B000E212361D71200A4C12D
:101EE000E9FFA5C1EAFFEECF14FCEECF15FCEECF63
:101EF00016FCEFCF17FCA6C1E9FFA7C1EAFFEECFA2
:101F000018FCEECF19FCEECF1AFCEFCF1BFC0C0136
:101F10001C6B060E1D6FA8C11EFCA9C11FFC1ECCA8
:101F200020F31FCC21F3F7EC56F0F3CF1EFCF4CFD7
:101F30001FFC0C0E0301286F296B0301140E266F82
:101F40000C0E276F1EEC57F0F3CF20FCF4CF21FCD2
:101F50000C01201F211FA8C1E7F1A9C1E8F1E1ECA4
:101F60005AF0F3CF22FCF4CF23FC0C0122512019AC
:101F700002E12351211904E0C6EC58F0010E51D0C2
:101F80000201F86BF96BBFEC6EF0140E0101F16FFA
:101F9000F26B0101000EEF6F0C0EF06F4BEC5CF07A
:101FA0000101000EB06F0C0EB16F98EC15F00C0132
:101FB0000C51F00BE842E842E842E842040DF350CD
:101FC000146E156A140E145E000E155A14C024FC0B
:101FD0002451146E156A14500101A85DA86F1550A4
:101FE000A959A96F140EA85F000EA95BA4C1AEF198
:101FF000A5C1AFF10101000EAC6F0C0EAD6FE6DABA
:1020000000090BE0A8C1B4F1A9C1B5F10101000EAE
:10201000B26F0C0EB36F3CEC17F0C6EC58F0010E2B
:1020200000D0120095EC00F00101AAA102D0418776
:10203000AA91409B409D409F419341954191A9ECBD
:1020400058F0000901E1FBD7060E0101AA1504E0D2
:102050000C016B6B6C6BFBD00E512F1902E10F5111
:10206000301904E10C016B6B6C6BD9D02F510E5DF4
:1020700030510F593FE20E512F5D0C016B6F010182
:102080000F5130590C016C6F6B510101145D0C0143
:102090006C510101155904E214C16BFC15C16CFCB3
:1020A0000C016B510101255D0C016C510101265998
:1020B00005E225C16BFC26C16CFC41856BCCC2F1ED
:1020C0006CCCC3F144C1C1F10EC1BFF10FC1C0F16D
:1020D0000101BE6B0101070EBC6F0A0EBD6F2AEC39
:1020E00020F00C016B5101010E270C016C51010114
:1020F0000F2395D00E512B5D0C01696F01010F511B
:102100002C590C016A6F695101012F25146E0C01C5
:102110006A5101013021156E2951145C0C016B6F5D
:1021200001012A5115580C016C6F6B510101145DAE
:102130000C016C510101155904E214C16BFC15C16D
:102140006CFC0C016B510101255D0C016C5101010E
:10215000265905E225C16BFC26C16CFC41850C01AA
:1021600069516B5D6A516C5904E26BCC69FC6CCCB3
:102170006AFC69CCC2F16ACCC3F144C1C1F10EC1A1
:10218000BFF10FC1C0F10101BE6B0101070EBC6FB1
:102190000A0EBD6F2AEC20F00C0169516B5D696F6E
:1021A0006A516C596A6F69516A1122E069CCC2F1B7
:1021B0006ACCC3F144C1C1F129C1BFF12AC1C0F148
:1021C0000101BE6B01010E512B5D146E2C510F5598
:1021D000156E166A176A070E14260A0E1522000ECF
:1021E0001622172214C0BCF115C0BDF12AEC20F054
:1021F0000C016B5101010E270C016C5101010F23E1
:102200002B510E5D2C510F590AE329512B5D146E91
:102210002C512A55156E14500E5F15500F5B01019D
:1022200041A715D014510C016B1904E1010115519E
:102230000C016C190CE0010125510C016B1904E132
:10224000010126510C016C1902E00101AA810C0167
:102250006B516C1104E1030E0101AA1529E00C0178
:102260006B510101145F0C016C510101155B0C01F4
:102270006B516C1102E00101AA870101ABA107D0EB
:10228000276BF20E026F9E0E036F046B056B4EEC14
:1022900073F0065001010225376F07500321386F94
:1022A00008500421396F095005213A6F408938D010
:1022B000ABA31BD0400EE96E010EEA6EEF50070B88
:1022C000E82AF36EF350070BF36EF46EF80EEF147A
:1022D000F310EF6EF4500607000E075B085B095B16
:1022E000010E0C016B6F6C6B1BD040A919D0ABB108
:1022F00008D0275106E02707D8900533043303336D
:1023000002334EEC73F0065001010225376F07507F
:102310000321386F08500421396F095005213A6FA5
:1023200012C147FC13C148FC10C149FC11C14AFC51
:1023300006C14BFC07C14CFC08C14DFC09C14EFC59
:102340000AC14FFC0BC150FC0CC151FC0DC152FC29
:102350000C01549D549F5391539353955397AAC185
:1023600054FC596B5A6B6B51010106270C016C51DF
:1023700001010723000E08230923AAA315D0AAB937
:1023800005D00C014F6B506B516B526B010124A3B4
:1023900006D00C014B074C5B4D5B4E5B05D0062B0A
:1023A00007230823092324830101AAA10DD024A116
:1023B00006D00C014B074C5B4D5B4E5B05D0062BEA
:1023C000072308230923248101013551335D365148
:1023D000345914E32B512D5D146E2E512C55156E6E
:1023E0003551335D166E34513655176E0C0116504B
:1023F000145C556F17501558566F0DD03351355D1D
:102400000C01556F0101345136590C01566F010E04
:10241000555F000E565BFCEC58F0F3CF45FCF4CF53
:1024200046FC0C01400E455D000E465903E2456B2B
:10243000466B04D0400E455F000E465B5551455D2E
:102440005651465904E245CC55FC46CC56FC010198
:10245000470EB06F0C0EB16F6BDB140E0C016B27C7
:10246000000E6C235389539B538D539F0101AAA3E4
:1024700026D0040E0C016B27000E6C23020E5B6F3E
:10248000040E5C6F020E5D6F180E5E6F010E146E0F
:10249000530EE96E0C0EEA6EEF50F00BE842E84284
:1024A000E842E84214240F0BF36EF46EF346F34651
:1024B000F346F3460F0EEF14F310EF6EF45084C2A0
:1024C0005FFC85C260FC86C261FC87C262FC18C1E9
:1024D00063FC19C164FC1AC165FC1BC166FC0C01DC
:1024E000676B060E686F6BCC69FC6CCC6AFC69CCC0
:1024F00020F36ACC21F3F7EC56F0F3CF69FCF4CF6C
:102500006AFC0C0E0301286F296B03015F0E266F16
:102510000C0E276F1EEC57F0F3CF57FCF4CF58FC8E
:102520000C01571F581F0101DF0EDF6F090EE06F0E
:1025300086EC5AF06BCCF6F26CCCF7F20201060E88
:10254000F56F0201180EF36F010EF46F4BEC6EF095
:10255000140E0101F66FF76B0101470EF46F0C0EBC
:10256000F56F83EC5CF00101AAA30BD0040E01010E
:10257000F66FF76B01015B0EF46F0C0EF56F83ECD9
:102580005CF00101F30EE16F090EE26F94EC5AF07A
:102590006BCCE7F16CCCE8F1E1EC5AF0F3CF45FC01
:1025A000F4CF46FC0101030EDF6F0A0EE06F86ECEC
:1025B0005AF0020E0101F66FF76B0101450EF46F40
:1025C0000C0EF56F83EC5CF037EF5AF0ACC1E9FF0D
:1025D000ADC1EAFF020EE926000EEA22EE50ED1030
:1025E00002E1000EA4D20C01FE0E266FAEC1E9FF7F
:1025F000AFC1EAFF020EE926000EEA22EECF18F084
:10260000EFCF19F0AEC1E9FFAFC1EAFF1850EE24D9
:10261000166E1950EE20176EACC1E9FFADC1EAFF8E
:102620001650EE24146E1750EE20156EACC1E9FF63
:10263000ADC1EAFF020EE926000EEA221450EE18A0
:10264000276F1550EE18286F256B2551146E156AEB
:10265000030E145C000E155867E225CC45F146ECDC
:1026600000F00D0E01013F5D02E15BD024D0040EAD
:102670003F5D16E1ACC1E9FFADC1EAFF020EE926FC
:10268000000EEA22EECF14F0EFCF15F014504219ED
:1026900002E11550431902E125CC26FC42D00BD0B3
:1026A0000C0127510101421904E10C0128510101DB
:1026B000431901E036D095EC00F0ACC1E9FFADC1A3
:1026C000EAFF020EE926000EEA22EECF14F0EFCF69
:1026D00015F001011251141802E11351151821E1EE
:1026E000ACC1E9FFADC1EAFFEECF16F0EFCF17F0B6
:1026F0001051161802E11151171813E1AEC1E9FF8C
:10270000AFC1EAFFEE50181909E1EE50191906E1C0
:10271000EE501A1903E1EE501B1900E102E1010E1F
:1027200006D20C01252B91D7FE0E265D3DE026CC6E
:1027300045F146EC00F095EC00F0FE0E0C01265D34
:1027400033E027CC42F128CC43F10A0EE66EE66A6C
:10275000AEC1E6FFAFC1E6FF180EE66E010EE66EF3
:102760003FEC6FF0146E060EE15C02E2E16AE552A6
:10277000E16E1450ACC1E9FFADC1EAFFEECF10F13C
:10278000EDCF11F1ACC1E9FFADC1EAFF020EE926C0
:10279000000EEA22EECF12F1EDCF13F129C10EF1B6
:1027A0002AC10FF1010EC3D1ACC1E9FFADC1EAFFEF
:1027B0000D0EE926000EEA22EF50020B02E1000E98
:1027C000B6D10E013851391102E0000EB0D10C0122
:1027D000296B2A6B030E295D000E2A5901E3BED036
:1027E00029CCE9FF2ACCEAFF140EEA02F3CFEAFF74
:1027F000E902F3CFE9FFF450EA26000EE9260E0EB7
:10280000EA22100EE926000EEA22EE50ED1001E158
:10281000A5D029CCE9FF2ACCEAFF140EEA02F3CFB7
:10282000EAFFE902F3CFE9FFF450EA26000EE926B9
:102830000E0EEA22100EE926000EEA22EECF14F068
:10284000EFCF15F0ACC1E9FFADC1EAFF020EE926FA
:10285000000EEA22EECF16F0EFCF17F01650141844
:1028600002E11750151801E074D029CCE9FF2ACCF9
:10287000EAFF140EEA02F3CFEAFFE902F3CFE9FF21
:10288000F450EA26000EE9260E0EEA220A0EE92688
:10289000000EEA22EECF14F0EFCF15F0ACC1E9FF45
:1028A000ADC1EAFFEECF16F0EFCF17F016501418B7
:1028B00002E11750151801E04CD0AEC1E9FFAFC1DD
:1028C000EAFFEECF14F0EECF15F0EECF16F0EFCF1B
:1028D00017F029CCE9FF2ACCEAFF140EEA02F3CF65
:1028E000EAFFE902F3CFE9FFF450EA26000EE926F9
:1028F0000E0EEA22EE500001141809E1EE501518F0
:1029000006E1EE50161803E1EE50171800E101E061
:1029100020D059EC73F006C014F007C015F029CC94
:10292000E9FF2ACCEAFF140EEA02F3CFEAFFE9023C
:10293000F3CFE9FFF450EA26000EE9260E0EEA2254
:10294000120EE926000EEA2214C0EEFF15C0EDFFBC
:10295000EED00C01292B000E2A233CD7256B2551E4
:10296000146E156A030E145C000E155801E3DDD0D9
:1029700025CC45F146EC00F0010140A7D3D095EC01
:1029800000F0ACC1E9FFADC1EAFF020EE926000E7E
:10299000EA22EECF14F0EFCF15F014500101121916
:1029A00002E11550131901E0BDD00A0EE66EE66A89
:1029B000AEC1E6FFAFC1E6FF29CCE9FF2ACCEAFFB2
:1029C000140EEA02F3CFEAFFE902F3CFE9FFF45075
:1029D000EA26000EE9260E0EEA22E9CF14F0EACF2D
:1029E00015F014C0E6FF15C0E6FF3FEC6FF0166E61
:1029F000060EE15C02E2E16AE552E16E1650ACC1FE
:102A0000E9FFADC1EAFFEECF14F0EFCF15F029CC0E
:102A1000E9FF2ACCEAFF140EEA02F3CFEAFFE9024B
:102A2000F3CFE9FFF450EA26000EE9260E0EEA2263
:102A30000A0EE926000EEA2214C0EEFF15C0EDFFD3
:102A4000ACC1E9FFADC1EAFF040EE926000EEA229F
:102A5000EECF14F0EECF15F0EECF16F0EFCF17F06B
:102A600029CCE9FF2ACCEAFF140EEA02F3CFEAFFF1
:102A7000E902F3CFE9FFF450EA26000EE9260E0E34
:102A8000EA220C0EE926000EEA2214C0EEFF15C061
:102A9000EEFF16C0EEFF17C0EEFFACC1E9FFADC1FF
:102AA000EAFF020EE926000EEA22EECF14F0EFCF85
:102AB00015F029CCE9FF2ACCEAFF140EEA02F3CF85
:102AC000EAFFE902F3CFE9FFF450EA26000EE92617
:102AD0000E0EEA22100EE926000EEA2214C0EEFFC6
:102AE00015C0EDFF59EC73F006C014F007C015F0E7
:102AF00029CCE9FF2ACCEAFF140EEA02F3CFEAFF61
:102B0000E902F3CFE9FFF450EA26000EE9260E0EA3
:102B1000EA22120EE926000EEA2214C0EEFF15C0CA
:102B2000EDFF05D00C01252B1AD7000E00D01200A6
:102B3000B0C1E9FFB1C1EAFFEECF20F3EDCF21F341
:102B4000F7EC56F0F3CF14F0F4CF15F0B0C1E9FF75
:102B5000B1C1EAFF14C0EEFF15C0EDFFB0C1E9FF3F
:102B6000B1C1EAFF020EE926000EEA22EECF20F301
:102B7000EDCF21F3F7EC56F0F3CF14F0F4CF15F0CE
:102B8000B0C1E9FFB1C1EAFF020E14C0EBFF030EB2
:102B900015C0EBFFB0C1E9FFB1C1EAFF040EE926A1
:102BA000000EEA22EECF22F3EECF23F3EECF24F392
:102BB000EFCF25F307EC57F006C014F007C015F06F
:102BC00008C016F009C017F0B0C1E9FFB1C1EAFFB3
:102BD000040EE926000EEA2214C0EEFF15C0EEFF37
:102BE00016C0EEFF17C0EEFFB0C1E9FFB1C1EAFFAA
:102BF000080EE926000EEA22EECF22F3EECF23F3F1
:102C0000EECF24F3EFCF25F307EC57F006C014F016
:102C100007C015F008C016F009C017F0B0C1E9FFF1
:102C2000B1C1EAFF080EE926000EEA2214C0EEFF49
:102C300015C0EEFF16C0EEFF17C0EEFFB0C1E9FFF2
:102C4000B1C1EAFF0E0EE926000EEA22EECF20F314
:102C5000EDCF21F3F7EC56F0F3CF14F0F4CF15F0ED
:102C6000B0C1E9FFB1C1EAFF0E0E14C0EBFF0F0EB9
:102C700015C0EBFFB0C1E9FFB1C1EAFF100EE926B4
:102C8000000EEA22EECF20F3EDCF21F3F7EC56F061
:102C9000F3CF14F0F4CF15F0B0C1E9FFB1C1EAFFF2
:102CA000100E14C0EBFF110E15C0EBFFB0C1E9FF11
:102CB000B1C1EAFF120EE926000EEA22EECF20F3A0
:102CC000EDCF21F3F7EC56F0F3CF14F0F4CF15F07D
:102CD000B0C1E9FFB1C1EAFF120E14C0EBFF130E41
:102CE00015C0EBFF120095EC00F012C142F113C1C8
:102CF00043F129C12FF12AC130F129C131F12AC193
:102D000032F12BC133F12CC134F12BC135F12CC17F
:102D100036F101014051080B02E0040E01D00D0E06
:102D20003F6F4091409340954099409B409D409F0C
:102D3000419141934195419741892491249324974E
:102D4000249929C10EF12AC10FF1B2EC52F0F3CF50
:102D500006F1F4CF07F1B2EC52F0F3CF08F1F4CF63
:102D600009F1010122692369010E146F156B12002C
:102D70000C0E0201F86FF96BBFEC6EF048EC5CF0E2
:102D80000C01416FF00E4115E840E8403F0B146E16
:102D9000156A140E145E000E155A14C041FC415100
:102DA00005E1180EF36E020EF46E65D0070E0101F8
:102DB000F16FF26B0101EF6BF06B4BEC5CF00C010F
:102DC00041514107000952E048EC5CF00C01426FB0
:102DD000425101E14BD0420501E1F1D7020E425DC3
:102DE0002CE1030E415D01E241D0436B446B48ECA2
:102DF0005CF00C01426F040E425D08E148EC5CF0AF
:102E00000C01446F48EC5CF00C01436F180E435DFD
:102E1000020E445901E22AD0B40ED8804355050E63
:102E2000445506E2B40EF36E050EF46E24D01DD0A8
:102E300043CCF3FF44CCF4FF1ED0020E415D01E20F
:102E400015D048EC5CF00C01426F4251415D01E24B
:102E50000DD042510101F16FF26B0101EF6BF06B8C
:102E60004BEC5CF00C014251415FA9D7180EF36E98
:102E7000020EF46E00D01200B2C1E9FFB3C1EAFF46
:102E80000D0EE926000EEA22EFCF33FCB2C1E9FFB6
:102E9000B3C1EAFF080EE926000EEA22EECF34FCA9
:102EA000EECF35FCEECF36FCEFCF37FCB2C1E9FFF9
:102EB000B3C1EAFF040EE926000EEA22EECF38FC89
:102EC000EECF39FCEECF3AFCEFCF3BFC0101409155
:102ED0004093409540B913D04EEC73F006C037F1E3
:102EE00007C038F108C039F109C03AF1740E010188
:102EF0003727350E3823060E3923000E3A233F516B
:102F0000050A48E0010A08E0B4C13CFCB5C13DFC3B
:102F10000C0133A1CFD0CBD00C0133A503D0E3DE1D
:102F2000FDEF1EF033A912D034CC06F135CC07F1F9
:102F300036CC08F137CC09F10101AB6B0101040E6D
:102F4000AA6F12EC10F0CFDEFDEF1EF033A31FD0FE
:102F500038CC0AF139CC0BF13ACC0CF13BCC0DF169
:102F600001010A2B000E0B230C230D2301DFF3CFED
:102F700025F1F4CF26F10101010EAB6F0101120E14
:102F8000AA6F12EC10F00101060E3F6F01D0ABDE0C
:102F9000FDEF1EF00C0133A502D0FDEF1EF033A9AA
:102FA00034D0340EE96E0C0EEA6EEE5001010619B3
:102FB00009E1EE50071906E1EE50081903E1EE5061
:102FC000091900E122E006C138FC07C139FC08C13B
:102FD0003AFC09C13BFC34CC06F135CC07F136CCC8
:102FE00008F137CC09F10101010EAB6F0101040EAC
:102FF000AA6F12EC10F038CC06F139CC07F13ACCBC
:1030000008F13BCC09F1FDEF1EF00C0133A34DD0CC
:1030100038CC0AF139CC0BF13ACC0CF13BCC0DF1A8
:1030200001010A2B000E0B230C230D23B2C1E9FF73
:10303000B3C1EAFF0E0EE926000EEA22EECF14F12C
:10304000EDCF15F195DEF3CF25F1F4CF26F10C018C
:1030500033A920D00101010EAB6F0101100EAA6F40
:1030600012EC10F00101070E3F6F4EEC73F006C03A
:1030700037F107C038F108C039F109C03AF1740ED0
:1030800001013727350E3823060E3923000E3A2367
:1030900040990BD00101010EAB6F0101120EAA6F16
:1030A00012EC10F00101060E3F6FFDEF1EF03C2BFD
:1030B000000E3D2333A303D03C2B000E3D23010122
:1030C0003551335D3651345914E32B512D5D146E57
:1030D0002E512C55156E3551335D166E34513655C3
:1030E000176E0C011650145C316F17501558326F63
:1030F0000DD03351355D0C01316F0101345136591A
:103100000C01326F010E315F000E325B0A0EE96E68
:10311000010EEA6EEE50385D2B6FEE5039592C6F70
:10312000EE503A592D6FEE503B592E6F2BCC2FFCA1
:103130002CCC30FC3E6B3C513D1101E17BD0315138
:10314000321101E176D0800E2E1512E131CC14F04F
:1031500032CC15F0166A176A14502B5D15502C5995
:1031600016502D5917502E5903E2010E3E6F3DD0D7
:103170003CCC14F03DCC15F0166A176A2B0EE96EA4
:103180000C0EEA6EEE501426EE501522EE5016226A
:10319000EE5017221734000E171809E6D880000EDB
:1031A0001454000E1554000E1654000E17541DE250
:1031B0003C51315D186E32513D55196E1A6A1B6AC9
:1031C00019AE02D01A681B681B502E19E8AE02D047
:1031D0002E3508D02B51185C2C5119582D511A58E6
:1031E0002E511B5802E3010E3E6F31CC14F032CC4D
:1031F00015F0166A176A2E511718E8AE02D0173468
:1032000008D014502B5D15502C5916502D591750BD
:103210002E590FE22F513C25186E30513D21196E69
:10322000193404E218500008000E195402E2010E8D
:103230003E6F1CD02B512C112D112E1103E1010ECC
:103240003E6F14D0800E2E1511E131CC14F032CC2B
:1032500015F0166A176A14502B5D15502C5916502C
:103260002D5917502E5902E2010E3E6F3E510CE1CE
:1032700033B508D00101010EAB6F0101100EAA6F2A
:1032800012EC10F0FDEF1EF0060E331503E02BDDFF
:10329000FDEF1EF033B902D0FDEF1EF001013F51EA
:1032A0000C0A01E17ED20B0A40E00F0A3EE0010A5F
:1032B0003CE0020A3AE0010A38E00C0A01E086D25A
:1032C000340EE96E0C0EEA6EEE50061909E1EE506E
:1032D000071906E1EE50081903E1EE50091900E163
:1032E00022E006C138FC07C139FC08C13AFC09C11B
:1032F0003BFC34CC06F135CC07F136CC08F137CCA9
:1033000009F10101010EAB6F0101040EAA6F12EC6D
:1033100010F038CC06F139CC07F13ACC08F13BCCAF
:1033200009F1FDEF1EF0070E3F6F0E512F5D0C01EE
:10333000296F01010F5130590C012A6F800E2A1597
:103340000CE0010129512B5D146E2C512A55156E8C
:1033500014500C01292715502A2329CC14F02ACC0B
:1033600015F0166A176A060EE96E010EEA6EEE5047
:103370001424256FEE501520266FEE501620276F6F
:10338000EE501720286F340EE96E0C0EEA6EEE50E8
:10339000255D146EEE502659156EEE502759166EA7
:1033A000EE502859176E0001800E171409E0010134
:1033B000AB6B0101100EAA6F12EC10F0FDEF1EF0C6
:1033C000010131510E5D146E0F513255156E166AA2
:1033D000176A15AE02D016681768060EE96E010E60
:1033E000EA6E1450EE5C0C01256F1550EE58266FF6
:1033F0001650EE58276F1750EE58286F01013151C3
:103400000E5D32510F5911E229512B5D146E2C5172
:103410002A55156E166A176A14500C01255F15504F
:10342000265B1650275B1750285B250EE96E0C0EA5
:10343000EA6EEE500C01345D256FEE503559266F63
:10344000EE503659276FEE503759286F2835000E49
:10345000281909E6D880000E2555000E2655000EC5
:103460002755000E285501E397D0010129512B5D06
:10347000146E2C512A55156E166A176A0C012551C7
:10348000145C26511558275116582851175801E237
:1034900083D0010124972499419131C129FC32C183
:1034A0002AFC0C012551010131270C012651010193
:1034B00032230C01295101010E5D0C012A51010139
:1034C0000F591BE331510E5D32510F5915E20E5168
:1034D000315D146E32510F55156E0001145001010B
:1034E00006270001155001010723000E08230923B8
:1034F00031C10EF132C10FF12FD029512B5D146E65
:103500002C512A55156E0E5114240C01296F0101FE
:103510000F5115200C012A6F010131510C01295D59
:10352000010132510C012A5917E229510101315D83
:10353000146E32510C012A55156E00011450010110
:1035400006270001155001010723000E0823092357
:1035500031C10EF132C10FF101012B51315D2C51FE
:1035600032590AE329512B5D146E2C512A55156EE0
:103570001450315F1550325B2B510E5D2C510F5999
:103580000AE329512B5D146E2C512A55156E1450E7
:103590000E5F15500F5B3FD001010E51311902E152
:1035A0000F51321938E024A735D024A932D0315137
:1035B0000E5D146E0F513255156E166A176A15AEF0
:1035C00002D0166817681450065F1550075B165036
:1035D000085B1750095B31510E5D32510F5914E2EF
:1035E00029512B5D146E2C512A55156E166A176AD7
:1035F00015AE02D0166817681450065F1550075BA9
:103600001650085B1750095B31C10EF132C10FF142
:103610004185248924872F51311902E13051321913
:103620002FE141B715D04EEC73F006C037F107C05B
:1036300038F108C039F109C03AF1740E0101372799
:10364000350E3823060E3923000E3A23409918D040
:10365000060EE96E010EEA6EEE500C01341909E116
:10366000EE50351906E1EE50361903E1EE503719E8
:1036700000E106E101012451010B02E0409941976C
:10368000340EE96E0C0EEA6EEE500101065D146E0A
:10369000EE500759156EEE500859166EEE50095946
:1036A000176EB2C1E9FFB3C1EAFF0E0EE926000EA4
:1036B000EA220C011450EE5C3F6F1550EE58406F3B
:1036C00001011451151106E10C013F51401102E0B6
:1036D000010141833FCC14F140CC15F1080E0101EA
:1036E0003F5D2DE1060EE96E010EEA6EEE500C0113
:1036F000341909E1EE50351906E1EE50361903E1AF
:10370000EE50371900E11AE101012451010B16E0D6
:103710004EEC73F006C037F107C038F108C039F13C
:1037200009C03AF1BA0E010137271A0E3823030EE9
:103730003923000E3A234089090E3F6F31D0090E1C
:103740003F5D16E10C0133B112D034CC06F135CC1B
:1037500007F136CC08F137CC09F10101AB6B01015F
:10376000140EAA6F12EC10F073EC16F046D318D0BA
:103770000A0E3F5D15E1060EE96E010EEA6EEE508F
:103780000C01341909E1EE50351906E1EE503619F5
:1037900003E1EE50371900E102E173EC16F02DD38E
:1037A00016D0060EE96E010EEA6EEE500C013419C9
:1037B00009E1EE50351906E1EE50361903E1EE50FD
:1037C000371900E102E173EC16F017D300D00C01B9
:1037D00033BB13D30B0E01013F5D01E10ED30A0E83
:1037E0003F5D01E10AD30C0E3F5D01E106D3B45108
:1037F000B51101E14ED20C01303504E22F51000821
:10380000000E305501E2E8D0B2C1E9FFB3C1EAFFD2
:103810000C0EE926000EEA22EF50F00BE842E842D7
:10382000E842E842040DF350146E156A2F51145CFF
:103830000201F86F0C01305115580201F96FBFEC0D
:103840006EF00C012F510101B4270C013051010120
:10385000B523B4510C01315D0101B5510C01325950
:1038600004E231CCB4F132CCB5F10101B4510A27F4
:10387000B5510B23000E0C230D233351B425146EC8
:103880003451B521156E14502D5D15502E5946E258
:1038900033512D5D0C01296F010134512E590C015A
:1038A0002A6F010E2927000E2A2329CCC2F12ACC27
:1038B000C3F10101C16B0101BF69C06944C1BEF11F
:1038C00033C1BCF134C1BDF1C5DB0C01295101018B
:1038D000B45D0101C26F0C012A510101B55901010A
:1038E000C36F0101C16B0101BF69C06944C1BEF171
:1038F0002BC1BCF12CC1BDF1ADDB0C012951010183
:10390000B45D146EB5510C012A55156E01012B5191
:103910001424336F2C511520346F15D0B4C1C2F16B
:10392000B5C1C3F10101C16B0101BF69C06944C1E7
:10393000BEF133C1BCF134C1BDF18CDB0101B45126
:103940003327B5513423221D01E1231D44E0B45136
:10395000225FB551235B165122250C01296F01010D
:10396000175123210C012A6F800E2A1504E0010152
:103970002269236930D00101233504E22251000875
:10398000000E235528E30C01295101010A270C01DF
:103990002A5101010B23000E0C230D230C01295188
:1039A000010133270C012A510101342333512D5DCC
:1039B00034512E590EE22B512D5D146E2E512C5583
:1039C000156E010E1426000E15221450335F15508B
:1039D000345B226923695DD1303504E22F51000840
:1039E000000E305501E355D10101B4510C012F25D2
:1039F000146E0101B5510C013021156E1450315D6A
:103A00001550325909E22F51315D0101B46F0C019B
:103A1000305132590101B56FB2C1E9FFB3C1EAFFBC
:103A20000C0EE926000EEA22EF50F00BE842E842C5
:103A3000E842E842040DF3500201F86FF96BBFEC65
:103A40006EF0010133510C012F25166E0101345126
:103A50000C013021176E16500101B425146E175059
:103A6000B521156E14502D5D15502E596EE233514F
:103A70002D5D146E2E513455156E010E1426000E58
:103A800015220C012F51145C296F305115582A6FE3
:103A9000800E2A1531E129CCC2F12ACCC3F10101F3
:103AA000C16B0101BF69C06944C1BEF1010133515D
:103AB0000C012F250101BC6F010134510C01302193
:103AC0000101BD6FC7DA0C0129510101B45D01018B
:103AD000C26F0C012A510101B5590101C36F0101E7
:103AE000C16B0101BF69C06944C1BEF12BC1BCF10A
:103AF0002CC1BDF1AFDA28D0B4C1C2F1B5C1C3F158
:103B00000101C16B0101BF69C06944C1BEF101017E
:103B100033510C012F25146E010134510C01302159
:103B2000156E01012B512D5D166E2E512C55176E01
:103B3000010E1626000E172201011650145CBC6FF0
:103B400017501558BD6F86DA18D0B4C1C2F1B5C18F
:103B5000C3F10101C16B0101BF69C06944C1BEF17C
:103B6000010133510C012F250101BC6F01013451BA
:103B70000C0130210101BD6F6DDA0101221D01E14F
:103B8000231D09E12FCC22F130CC23F1B4C116F171
:103B9000B5C117F17ED022510C012F5D01012351D7
:103BA0000C0130593DE22F510101B425146E0C0176
:103BB00030510101B521156E22511625166E235183
:103BC0001721176E1450165C155017580FE30C018F
:103BD0002F510101B425186E0C0130510101B5219E
:103BE000196E2251185C2351195805E2B4C116F11F
:103BF000B5C117F110D022511625146E235117218B
:103C0000156E0C012F51145C0101166F0C0130511F
:103C100015580101176F2FCC22F130CC23F139D088
:103C20002F510101B425146E0C0130510101B52151
:103C3000156E22511625166E23511721176E14503A
:103C4000165C1550175825E222511625146E235183
:103C50001721156E0C012F51145C3051155819E3C2
:103C60002F510101B425186E0C0130510101B5210D
:103C7000196E2251185C166E23511958176E165181
:103C8000165C146E17511758156E145016271550E0
:103C900017230C013C513D1124E0070E01013F5D4B
:103CA00004E033C135F134C136F140AF0BD001012E
:103CB000010EAB6F0101100EAA6F12EC10F095EC23
:103CC00000F00FD0408F40BD0CD0408D59EC73F008
:103CD00006C03DF107C03EF10F0E01013D27000E69
:103CE0003E230C0133A189D00AC114F00BC115F099
:103CF0000CC116F00DC117F0142A000E1522162261
:103D000017223CCC18F03DCC19F01A6A1B6A380E09
:103D1000E96E0C0EEA6EEE501826EE501922EE50A7
:103D20001A22EE501B221450181809E115501918C8
:103D300006E116501A1803E117501B1800E15DE167
:103D400001010A2B000E0B230C230D233F51090AFE
:103D500041E0010A1EE00F0A0EE0010A01E044D032
:103D60000C0E3F6F0101010EAB6F0101110EAA6F26
:103D700012EC10F042D00B0E3F6F59EC73F006C0FE
:103D80003DF107C03EF11F0E01013D27000E3E230D
:103D90002CD0060EE96E010EEA6EEE500C013419BD
:103DA00009E1EE50351906E1EE50361903E1EE5007
:103DB000371900E10BE10101AB6B0101100EAA6F95
:103DC00012EC10F073EC16F018D003D001010A0EBB
:103DD0003F6F0BD00101AB6B0101100EAA6F12EC0B
:103DE00010F073EC16F009D000D00101010EAB6F9A
:103DF0000101100EAA6F12EC10F01200B6C145F1CD
:103E000046EC00F00101B751B81103E1010EB76FA4
:103E1000B86B29512D5D0C01006F01012A512E59FB
:103E20000C01016F010E005F000E015B0101B75133
:103E3000B925146EB851BA21156E0C011450005DED
:103E40001550015902E2000E04D195EC00F0030E6A
:103E50000101BB1502E1030EBB13B9C104FCBAC1D9
:103E600005FCB751B925146EB851BA21156E14501E
:103E70000C01005F1550015B0101BBA314D0BBA175
:103E80000DD000CC14F001CC15F0D89015321432BE
:103E900014500C0104271550052305D00C010051C6
:103EA000042701510523010129510C010425006F4C
:103EB00001012A510C010521016F010E0027000E9E
:103EC000012333C102FC34C103FC0101221D01E1C5
:103ED000231D22E022511625146E23511721156E41
:103EE00014500C01022715500323025101012D5DCE
:103EF0000C01035101012E590FE22B512D5D146E5F
:103F00002E512C55156E010E1426000E152214503C
:103F10000C01025F1550035B0C0102510101355D7C
:103F20000C0103510101365917E20C010051010146
:103F3000355D0C010151010136590DE2BBA503D0DD
:103F4000000E87D008D000CC35F101CC36F100CC82
:103F500033F101CC34F126D035510C01025D010161
:103F600036510C01035916E2005101012B5D0C0181
:103F7000015101012C590DE2BBA503D0000E69D0FF
:103F800008D000CC35F101CC36F100CC33F101CCB6
:103F900034F108D000CC35F101CC36F100CC33F14E
:103FA00001CC34F1010135510C01025D01013651A2
:103FB0000C01035930E2040E0101BB152CE02B511A
:103FC0000C01025D0101C26F01012C510C0103596A
:103FD0000101C36F44C1C1F12BC1BFF12CC1C0F1BC
:103FE00044C1BEF100CCBCF101CCBDF133D801011C
:103FF0003551335D365134590EE20C010051010147
:104000002B5D146E2C510C010155156E14500101DD
:10401000335F1550345B00CC2BF101CC2CF129C15E
:104020000EF12AC10FF129C131F12AC132F129C1A2
:104030002FF12AC130F1070E01013F5D08E10101B6
:10404000010EAB6F0101100EAA6F12EC10F0010E01
:1040500000D012000101C15135E0010A01E061D038
:10406000BE511AE0010A01E02CD0C2C1E6FFC3C173
:10407000E6FFBFC1E6FFC0C1E6FFBCC1E6FFBDC1B0
:10408000E6FF3FEC6FF0146E060EE15C02E2E16ABF
:10409000E552E16E145015D0BC1D01E1BD1D06E0D6
:1040A000BCC1DFF1BDC1E0F186EC5AF0C2C1F6F14E
:1040B000C3C1F7F1BFC1F4F1C0C1F5F183EC5CF00D
:1040C00000D02FD0BE5118E0010A01E029D0BF1D59
:1040D00001E1C01D06E0BFC1E1F1C0C1E2F194EC15
:1040E0005AF0C2C1F1F1C3C1F2F1BCC1EFF1BDC1DF
:1040F000F0F14BEC5CF014D0C2C1EDF1C3C1EEF1B4
:10410000BFC1EBF1C0C1ECF1BCC1E9F1BDC1EAF145
:104110006DEC5BF041EC5CF0000901E1FBD700D0F5
:1041200000D012000101C65121E0010A01E077D060
:10413000C9C1E6FFCAC1E6FFC7C114F0C8C115F086
:10414000166A14C0E6FF15C0E6FF16C0E6FFC4C13C
:10415000E6FFC5C1E6FF6AEC6FF0176E070EE15C83
:1041600002E2E16AE552E16E175059D0C41D01E147
:10417000C51D06E0C4C1DFF1C5C1E0F186EC5AF00F
:10418000100E0C01106F116B0101C951CA1146E0EC
:104190000C0110510101C95D0C0111510101CA59F5
:1041A00004E2C9C110FCCAC111FC10CCE6FF11CC5D
:1041B000E6FFC7C114F0C8C115F0166A14C0E6FFC7
:1041C00015C0E6FF16C0E6FF000EE66E0C0EE66EAA
:1041D0006AEC6FF0176E070EE15C02E2E16AE552ED
:1041E000E16E175010CCF6F111CCF7F10101000E81
:1041F000F46F0C0EF56F83EC5CF00C0110510101B3
:10420000C7270C0111510101C8230C0110510101F4
:10421000C95F0C0111510101CA5BB6D700D0120071
:10422000490E03013A1905E13B5103E13C5101E11B
:104230003D5101E170D3480E3A1905E13B5103E1CC
:104240003C5101E13D5101E163D3470E3A1905E1CB
:104250003B5103E13C5101E13D5101E152D3460E96
:104260003A1905E13B5103E13C5101E13D5101E1C6
:1042700041D3450E3A1905E13B5103E13C5101E1BF
:104280003D5101E131D3440E3A1905E13B5103E1BF
:104290003C5101E13D5101E120D3430E3A1905E1C2
:1042A0003B5103E13C5101E13D5101E10FD3420E8D
:1042B0003A1905E13B5103E13C5101E13D5101E176
:1042C000FFD2330E3A1905E13B5103E13C5101E1C4
:1042D0003D5101E1EDD2310E3A1905E13B5103E1C7
:1042E0003C5101E13D5101E1DCD2300E3A1905E1CA
:1042F0003B5103E13C5101E13D5101E1CBD22F0E95
:104300003A1905E13B5103E13C5101E13D5101E125
:10431000BBD22E0E3A1905E13B5103E13C5101E1BC
:104320003D5101E1AED22D0E3A1905E13B5103E1B9
:104330003C5101E13D5101E1A1D22C0E3A1905E1B8
:104340003B5103E13C5101E13D5101E194D22B0E7F
:104350003A1905E13B5103E13C5101E13D5101E1D5
:1043600087D22A0E3A1905E13B5103E13C5101E1A4
:104370003D5101E17AD2290E3A1905E13B5103E1A1
:104380003C5101E13D5101E16DD2280E3A1905E1A0
:104390003B5103E13C5101E13D5101E160D2270E67
:1043A0003A1905E13B5103E13C5101E13D5101E185
:1043B00053D2260E3A1905E13B5103E13C5101E18C
:1043C0003D5101E146D2250E3A1905E13B5103E189
:1043D0003C5101E13D5101E139D2240E3A1905E188
:1043E0003B5103E13C5101E13D5101E12CD2230E4F
:1043F0003A1905E13B5103E13C5101E13D5101E135
:104400001FD2220E3A1905E13B5103E13C5101E173
:104410003D5101E112D2210E3A1905E13B5103E170
:104420003C5101E13D5101E105D2200E3A1905E16F
:104430003B5103E13C5101E13D5101E1F8D11F0E37
:104440003A1905E13B5103E13C5101E13D5101E1E4
:10445000EBD11E0E3A1905E13B5103E13C5101E15C
:104460003D5101E1DED11D0E3A1905E13B5103E159
:104470003C5101E13D5101E1D1D11C0E3A1905E158
:104480003B5103E13C5101E13D5101E1C4D11B0E1F
:104490003A1905E13B5103E13C5101E13D5101E194
:1044A000B3D11A0E3A1905E13B5103E13C5101E148
:1044B0003D5101E1A2D1190E3A1905E13B5103E149
:1044C0003C5101E13D5101E191D1180E3A1905E14C
:1044D0003B5103E13C5101E13D5101E181D1170E16
:1044E0003A1905E13B5103E13C5101E13D5101E144
:1044F00071D1160E3A1905E13B5103E13C5101E13E
:104500003D5101E164D1150E3A1905E13B5103E13A
:104510003C5101E13D5101E150D1140E3A1905E140
:104520003B5103E13C5101E13D5101E13CD1130E0E
:104530003A1905E13B5103E13C5101E13D5101E1F3
:1045400028D1120E3A1905E13B5103E13C5101E13A
:104550003D5101E113D1110E3A1905E13B5103E13F
:104560003C5101E13D5101E1FFD0100E3A1905E146
:104570003B5103E13C5101E13D5101E1EAD00F0E15
:104580003A1905E13B5103E13C5101E13D5101E1A3
:10459000D6D00E0E3A1905E13B5103E13C5101E141
:1045A0003D5101E1C1D00D0E3A1905E13B5103E146
:1045B0003C5101E13D5101E1B4D00C0E3A1905E145
:1045C0003B5103E13C5101E13D5101E1A3D00B0E10
:1045D0003A1905E13B5103E13C5101E13D5101E153
:1045E00092D00A0E3A1905E13B5103E13C5101E139
:1045F0003D5101E181D0090E3A1905E13B5103E13A
:104600003C5101E13D5171E0080E3A1905E13B5181
:1046100003E13C5101E13D5161E0070E3A1905E12A
:104620003B5103E13C5101E13D5151E0060E3A1985
:1046300005E13B5103E13C5101E13D5141E0050EF3
:104640003A1905E13B5103E13C5101E13D5135E0AF
:10465000040E3A1905E13B5103E13C5101E13D51A2
:104660002AE0030E3A1905E13B5103E13C5101E117
:104670003D511EE0020E3A1905E13B5103E13C5168
:1046800001E13D510DE0010E3A1905E13B5103E115
:104690003C5101E13D5101E041D1D5EC43F057D10E
:1046A0000301660E576FC10E586FACEC3AF04FD154
:1046B00014EC44F04CD14DD94AD109EC41F047D12A
:1046C000070E03017F6F806BCCEC41F040D1060EEA
:1046D00003017F6F806BCCEC41F039D1050E0301F3
:1046E0007F6F806BCCEC41F032D1040E03017F6F01
:1046F000806BCCEC41F02BD1030E03017F6F806BFC
:10470000CCEC41F024D1020E03017F6F806BCCEC26
:1047100041F01DD1010E03017F6F806BCCEC41F0A5
:1047200016D1F2EC42F013D1010E0301836F846BBA
:10473000040E0301816F826B47EC42F008D1030144
:10474000836B846B040E0301816F826B47EC42F034
:10475000FED0010E0301836F846B030E0301816F92
:10476000826B47EC42F0F3D00301836B846B030E42
:104770000301816F826B47EC42F0E9D0010E030127
:10478000836F846B020E0301816F826B47EC42F0F2
:10479000DED00301836B846B020E0301816F826B99
:1047A00047EC42F0D4D0010E0301836F846B030108
:1047B000816F826B47EC42F0CAD00301836B846B3C
:1047C000010E0301816F826B47EC42F0C0D066ECB2
:1047D00041F0BDD003017F6B806BCCEC41F0B7D0D2
:1047E00003017D6B7E6B7BEC41F0B1D0010E0301C8
:1047F0007D6F7E6B7BEC41F0AAD0020E03017D6FD2
:104800007E6B7BEC41F0A3D0030E03017D6F7E6BCA
:104810007BEC41F09CD0CBEC42F099D054EC44F0CE
:1048200096D0C6EC46F093D04CEC46F090D061ECBC
:1048300046F08DD048EC46F08AD049EC46F087D05F
:104840004AEC46F084D0F7EC46F081D0B1EC45F06C
:104850007ED049EC45F07BD060EC45F078D07AEC26
:1048600045F075D085EC45F072D090EC45F06FD0F6
:104870009BEC45F06CD0A6EC45F069D031EC46F0ED
:1048800066D033EC46F063D003018D6B8E6B4BEC3E
:1048900046F05DD0010E03018D6F8E6B4BEC46F040
:1048A00056D0020E03018D6F8E6B4BEC46F04FD04D
:1048B00003015B0E576FC10E586FACEC3AF047D056
:1048C0000301896B8A6B2FEC46F041D0010E030186
:1048D000896F8A6B2FEC46F03AD0020E0301896F84
:1048E0008A6B2FEC46F033D003018B6B8C6B30EC72
:1048F00046F02DD0010E03018B6F8C6B30EC46F02F
:1049000026D0020E03018B6F8C6B30EC46F01FD06B
:104910009CEC46F01CD0B1EC46F019D0040E01011D
:104920006B6F6C6B0101560E696FC10E6A6F0201ED
:104930008351E96EEA6AD890E936EA367F0EE926B5
:10494000020EEA22EE52EFCF68F1BFEC04F000D085
:10495000120001017E0E626F02018351E96EEA6A64
:10496000D890E936EA367F0EE926020EEA22EE52A8
:10497000EFCF61F186EC03F000D012000201836BEF
:10498000020E835D5AE28351E96EEA6AD890E936F5
:10499000EA367F0EE926020EEA22EF6A0101080ECE
:1049A0004D6F500E01014B6F4C6B01014A6B0101C1
:1049B000466B476B486B496BC9EC01F0E66E020130
:1049C0008351E96EEA6AD890E936EA367F0EE92625
:1049D000020EEA22EE52E552E750EF6E14691569B5
:1049E00083517F0DF3CF14F0F4CF15F0166A176AD8
:1049F000FE0E14261E0E1522000E1622172214C0BB
:104A0000DFF115C0E0F186EC5AF0F3CF00FCF4CFF3
:104A100001FC7F0E0101F66FF76B0101000EF46FD0
:104A2000020EF56F83EC5CF000CCDFF101CCE0F11D
:104A300086EC5AF00201832BA3D7836B12000C0182
:104A4000B36B020EB35D01E385D0B351E96EEA6A40
:104A5000D890E936EA367F0EE926020EEA22EE52B7
:104A6000EF50FE0801E173D0B351E96EEA6AD890C5
:104A7000E936EA367F0EE926020EEA22EE52EFCF41
:104A80004EF18EEC02F000093BE0B3CC3EF363D86C
:104A900002018351E96EEA6AD890E936EA367F0E60
:104AA000E926020EEA22EF6AFF0E145D06E014C248
:104AB000D5F05FEC4AF002011469FF0E155D06E0C7
:104AC00015C2D5F05FEC4AF0020115690101040E30
:104AD000BB6F0101B96BBA6B010E0101B76FB86B07
:104AE00002018351E96EEA6AD890E936EA367F0E10
:104AF000E926020EEA22EE52EFCFB6F1FEEC1EF0EE
:104B00000C01B351E96EEA6AD890E936EA367F0EB5
:104B1000E926020EEA22EF5016E1B351E96EEA6A85
:104B2000D890E936EA367F0EE926020EEA22EE52E6
:104B3000EFCF75F109EC06F0F3CF14F0F4CF15F0D8
:104B40001450151004E0B3CC3EF305D863D80C0123
:104B5000B32B77D712000201835103013E5D01E1BF
:104B600058D0020183517F0DF3CF14F0F4CF15F02C
:104B7000166A176AFE0E14261E0E1522000E162245
:104B8000172214C0DFF115C0E0F186EC5AF0F3CF24
:104B900000FCF4CF01FC7F0E0101F66FF76B010101
:104BA000000EF46F020EF56F83EC5CF000CCDFF1C9
:104BB00001CCE0F186EC5AF003013E517F0DF3CFBA
:104BC00014F0F4CF15F0166A176AFE0E14261E0EA6
:104BD0001522000E1622172214C0E1F115C0E2F1D1
:104BE00094EC5AF0F3CF00FCF4CF01FC7F0E0101EE
:104BF000F16FF26B0101000EEF6F020EF06F4BECE4
:104C00005CF000CCE1F101CCE2F194EC5AF03EC34F
:104C100083F212000C01010E916F02018351E96EC3
:104C2000EA6AD890E936EA367F0EE926020EEA22D1
:104C3000EF500B0A02E1AAEF31F0010A02E16DEF39
:104C400031F0030A02E138EF31F0010A02E1BBEF73
:104C50002FF00F0A02E1FCEF2DF0010A02E1C5EF8F
:104C60002DF0030A02E189EF2CF0010A02E176EF50
:104C70002CF0070A02E11DEF2CF0010A02E166EFB9
:104C80002AF0030A67E0010A02E0D8EF31F083510D
:104C9000E96EEA6AD890E936EA367F0EE926020E16
:104CA000EA22EE52EFCF75F109EC06F0F3CF8BFC60
:104CB000F4CF8CFC0C018B518C114AE002011A0ECE
:104CC000106F020E116F8351E96EEA6AD890E936CF
:104CD000EA367F0EE926020EEA22010EEF6E176910
:104CE000166B4EEC73F006C008F207C009F208C05C
:104CF0000AF209C00BF28A0E02010827F00E0923FE
:104D00001B0E0A23000E0B230C690D690E690F6937
:104D1000006B016B026B036B7E6B0101050EBB6FB9
:104D20000101B96BBA6B010E0101B76FB86B0201DB
:104D30008351E96EEA6AD890E936EA367F0EE926B1
:104D4000020EEA22EE52EFCFB6F1FEEC1EF002D0D8
:104D5000D8EF31F00101A36B0101A16BA26B01013E
:104D60009F6BA06B01010A0E9E6F02018351E96ED9
:104D7000EA6AD890E936EA367F0EE926020EEA2280
:104D8000EE52EFCF9DF1A6EC0BF0F3CF14F0F4CF81
:104D900015F00001141C01E1151C65E102018351AD
:104DA000E96EEA6AD890E936EA367F0EE926020E05
:104DB000EA22EE52EFCF7EF144EC07F0F3CF14F08D
:104DC000F4CF15F01450151011E10201050E186F03
:104DD0008351E96EEA6AD890E936EA367F0EE92611
:104DE000020EEA22070EEF6E0C01916B4EEC73F08F
:104DF00002010851065C146E09510758156E0A51DC
:104E00000858166E0B510958176E1734000E1718F4
:104E100009E6D880000E1454000E1554000E1654E6
:104E2000000E17541EE28351E96EEA6AD890E93603
:104E3000EA367F0EE926020EEA22EE52EFCF50F15B
:104E4000A6EC02F002018351E96EEA6AD890E936D5
:104E5000EA367F0EE926020EEA220B0EEF6E0C01F7
:104E6000916BD8EF31F04EEC73F006C008F207C03A
:104E700009F208C00AF209C00BF28A0E02010827E3
:104E8000F00E09231B0E0A23000E0B230101A36B56
:104E90000101A16BA26B01019F6BA06B0101200EB0
:104EA0009E6F02018351E96EEA6AD890E936EA36CC
:104EB0007F0EE926020EEA22EE52EFCF9DF1A6EC1C
:104EC0000BF0F3CF8BFCF4CF8CFC0C01050ED880DB
:104ED0008B55000E8C5503E2050E8B6F8C6B010E0B
:104EE0008B2501017C6F000E0C018C2101017D6F6F
:104EF00001011A0E7A6F020E7B6F02018351E96E77
:104F0000EA6AD890E936EA367F0EE926020EEA22EE
:104F1000EE52EFCF79F191EC06F0030EE66EE66A01
:104F2000840E146EBA0E156E166A14C0E6FF15C014
:104F3000E6FF16C0E6FF1A0EE66E020EE66E20ECE5
:104F40006FF0176E070EE15C02E2E16AE552E16E76
:104F50001750000903E10201186B35D0040EE66E0C
:104F6000E66A7F0E146EBA0E156E166A14C0E6FF5E
:104F700015C0E6FF16C0E6FF1A0EE66E020EE66EDC
:104F800020EC6FF0176E070EE15C02E2E16AE55279
:104F9000E16E1750000904E10201010E186F13D0F1
:104FA0000201070E186F8351E96EEA6AD890E9365C
:104FB000EA367F0EE926020EEA22070EEF6E0C019A
:104FC000916BD8EF31F00101A36B0101A16BA26BD2
:104FD00001019F6BA06B0101200E9E6F02018351A6
:104FE000E96EEA6AD890E936EA367F0EE926020EC3
:104FF000EA22EE52EFCF9DF1A6EC0BF0F3CF8BFC43
:10500000F4CF8CFC0101A36B8BCCA1F18CCCA2F171
:1050100001019F6BA06B01013F0E9E6F0201835146
:10502000E96EEA6AD890E936EA367F0EE926020E82
:10503000EA22EE52EFCF9DF1A6EC0BF0F3CF8DFC00
:10504000F4CF8EFC0C018D518B5D8E518C5901E299
:1050500004D08DCC8BFC8ECC8CFC590ED8808B551B
:10506000000E8C5513E20201050E186F8351E96E94
:10507000EA6AD890E936EA367F0EE926020EEA227D
:10508000070EEF6E0C01916BD8EF31F08BCC7CF1F9
:105090008CCC7DF101011A0E7A6F020E7B6F02013A
:1050A0008351E96EEA6AD890E936EA367F0EE9263E
:1050B000020EEA22EE52EFCF79F191EC06F0F3CF37
:1050C0008DFCF4CF8EFC1A0E0C018D25E96E020EBC
:1050D0008E21EA6EEF6A03011A0E406F020E416FD5
:1050E00036EC35F01A0EE66E020EE66E17EC70F036
:1050F000E552E552F3CF8DFCF4CF8EFC0B0EE66E3D
:10510000E66A740E146EBA0E156E166A14C0E6FFC7
:1051100015C0E6FF16C0E6FF1B0EE66E020EE66E39
:1051200020EC6FF0176E070EE15C02E2E16AE552D7
:10513000E16E1750000920E103011B0E776F020E8C
:10514000786F53EC3BF00201176F185103E1080E22
:10515000186F02D0090E186F8351E96EEA6AD89071
:10516000E936EA367F0EE926020EEA22020EEF6EDB
:105170000C01916BD8EF31F08DCCE9FF8ECCEAFFBA
:10518000E906000EEA5A1A0EE926020EEA22EF504C
:105190002F0809E000011B0ECF6F020ED06F56ECF6
:1051A00047F00201146FFF0E0201145D5AE18DCC2D
:1051B000E9FF8ECCEAFFE906000EEA5A1A0EE9264C
:1051C000020EEA22EF502F080EE00C018DCCE9FF11
:1051D0008ECCEAFF8D2B000E8E231A0EE926020ECE
:1051E000EA222F0EEF6E6A0E146EBA0E156E166A54
:1051F00014C0E6FF15C0E6FF16C0E6FF1A0E0C014C
:105200008D25176E020E8E21186E17C0E6FF18C08E
:10521000E6FFFEEC6FF0196E050EE15C02E2E16A5A
:10522000E552E16E19506A0E146EBA0E156E166ACA
:1052300014C0E6FF15C0E6FF16C0E6FF25EC70F0CF
:10524000E552E552E55207500C018D2708508E2398
:1052500000011B0ECF6F020ED06F56EC47F002011B
:10526000146F1A0E0C018D25926F020E8E21936F12
:10527000010E925F000E935B1A0E921902E1020E6C
:1052800093190CE092CCE9FF93CCEAFFEF502E0883
:1052900001E104D09207000E935BEED7922B000E33
:1052A00093230201196B0B0EE76E1919E8AE02D0B9
:1052B000E73402D0E750195D1EE219C2F6FFF76A23
:1052C000F6BEF768D890F636F736B50EF626E80E35
:1052D000F7220900F5CF1EF30A00F5CF1FF392CC99
:1052E0001CF393CC1DF3A8EC56F0000901E103D0A8
:1052F0000201192BD8D703011B0E776F020E786FAE
:1053000053EC3BF00201176FFF0E145D18E014C25E
:10531000F1F0F3EC4FF0F350020B11E014C2FCF08B
:1053200021EC52F0F3CFD3F0F4CFD4F0010E000112
:10533000D327000ED423D6EC49F00201156F0101EA
:10534000A36B0101A16BA26B01019F6BA06B01011B
:10535000200E9E6F02018351E96EEA6AD890E93609
:10536000EA367F0EE926020EEA22EE52EFCF9DF1D9
:10537000A6EC0BF0F3CF8BFCF4CF8CFC0C018B5123
:105380008C115BE00201010E166F01018F0E776F29
:105390000C0E786F02018351E96EEA6AD890E93603
:1053A000EA367F0EE926020EEA22EE52EFCF76F1C0
:1053B0003BEC06F00C018B07000E8C5B620E8B5DE4
:1053C000000E8C5913E30201050E186F8351E96E2C
:1053D000EA6AD890E936EA367F0EE926020EEA221A
:1053E000070EEF6E0C01916BD8EF31F08BCC7CF196
:1053F0008CCC7DF101011A0E7A6F020E7B6F0201D7
:105400008351E96EEA6AD890E936EA367F0EE926DA
:10541000020EEA22EE52EFCF79F191EC06F0F35052
:1054200002011027F450112310C2E9FF11C2EAFF54
:10543000102B000E1123260EEF6E0101A36B01014C
:10544000A16BA26B01019F6BA06B01010A0E9E6F05
:1054500002018351E96EEA6AD890E936EA367F0E96
:10546000E926020EEA22EE52EFCF9DF1A6EC0BF0F8
:10547000F3CF8BFCF4CF8CFC010E0C018B250101CA
:105480007C6F000E0C018C2101017D6F01017A6B94
:105490007B6B02018351E96EEA6AD890E936EA36FD
:1054A0007F0EE926020EEA22EE52EFCF79F191EC5F
:1054B00006F002018351E96EEA6AD890E936EA36CD
:1054C0007F0EE926020EEA22020EEF6E0101A36BA7
:1054D0000101A16BA26B01019F6BA06B01010A0E80
:1054E0009E6F02018351E96EEA6AD890E936EA3686
:1054F0007F0EE926020EEA22EE52EFCF9DF1A6ECD6
:105500000BF0F3CF8BFCF4CF8CFC0C018B1D01E175
:105510008C1D64E102018351E96EEA6AD890E93694
:10552000EA367F0EE926020EEA22EE52EFCF7EF136
:1055300044EC07F0F3CF14F0F4CF15F0145015102D
:1055400011E10201050E186F8351E96EEA6AD890E5
:10555000E936EA367F0EE926020EEA22070EEF6EE2
:105560000C01916B4EEC73F002010851065C146E55
:1055700009510758156E0A510858166E0B510958F3
:10558000176E1734000E171809E6D880000E145451
:10559000000E1554000E1654000E17541EE28351CF
:1055A000E96EEA6AD890E936EA367F0EE926020EFD
:1055B000EA22EE52EFCF50F1A6EC02F00201835145
:1055C000E96EEA6AD890E936EA367F0EE926020EDD
:1055D000EA220B0EEF6E0C01916B2DD14EEC73F0A5
:1055E00006C008F207C009F208C00AF209C00BF2AF
:1055F0008A0E02010827F00E09231B0E0A23000E53
:105600000B230C01010E8B1901E18C5127E1020ED5
:1056100001017C6F7D6B01017A6B7B6B0201835111
:10562000E96EEA6AD890E936EA367F0EE926020E7C
:10563000EA22EE52EFCF79F191EC06F002018351AC
:10564000E96EEA6AD890E936EA367F0EE926020E5C
:10565000EA22030EEF6E0C01916BEDD00101A36BFA
:105660008BCCA1F18CCCA2F101019F6BA06B01014D
:105670003A0E9E6F02018351E96EEA6AD890E936CC
:10568000EA367F0EE926020EEA22EE52EFCF9DF1B6
:10569000A6EC0BF0F3CF8DFCF4CF8EFC020E0C01C8
:1056A0008D27000E8E23916B100ED8808D55000E25
:1056B0008E551DE2010E8B2501017C6F000E0C0141
:1056C0008C2101017D6F01017A6B7B6B020183519B
:1056D000E96EEA6AD890E936EA367F0EE926020ECC
:1056E000EA22EE52EFCF79F191EC06F0EFD68DCCB5
:1056F0007CF18ECC7DF10101940E7A6F0C0E7B6FE4
:1057000002018351E96EEA6AD890E936EA367F0EE3
:10571000E926020EEA22EE52EFCF79F191EC06F083
:105720008DCCE9FF8ECCEAFFE906000EEA5A940E12
:10573000E9260C0EEA22EF6A0C018D518B5F8E5127
:105740008C5B906B9051146E156A030E145C000E06
:10575000155832E29051F66EF76AD890F636F73661
:10576000010EF626E90EF7220900F5CF14F0080025
:10577000F5CF15F0166A14C0E6FF15C0E6FF16C097
:10578000E6FF940EE66E0C0EE66EC7EC6FF0176E39
:10579000050EE15C02E2E16AE552E16E1750000994
:1057A00008E190CC3FF3E7EC32F00C01010E916F71
:1057B00003D00C01902BC6D791511FE00101A36BC0
:1057C0000101A16BA26B01019F6BA06B01010A0E8D
:1057D0009E6F02018351E96EEA6AD890E936EA3693
:1057E0007F0EE926020EEA22EE52EFCF9DF1A6ECE3
:1057F0000BF0F3CF8BFCF4CF8CFC010E0C018B254E
:1058000001017C6F000E0C018C2101017D6F0101F3
:105810007A6B7B6B02018351E96EEA6AD890E936B4
:10582000EA367F0EE926020EEA22EE52EFCF79F138
:1058300091EC06F04BD6D8EF31F0800E175D12E2F6
:10584000030E186F8351E96EEA6AD890E936EA369A
:105850007F0EE926020EEA22070EEF6E0C01916B15
:10586000D8EF31F010C2E9FF11C2EAFFEF6A03017D
:105870001A0E406F020E416F36EC35F0F3CF10F286
:10588000F4CF11F2080E0201185D10E18351E96EA8
:10589000EA6AD890E936EA367F0EE926020EEA2255
:1058A000070EEF6E0C01916BD8EF31F08351E96E6A
:1058B000EA6AD890E936EA367F0EE926020EEA2235
:1058C000040EEF6E16510CE18351E96EEA6AD8902E
:1058D000E936EA367F0EE926020EEA22050EEF6E61
:1058E0000C01916B0201166BD8EF31F0D1EC3BF05B
:1058F000020802E1D8EF31F002018351E96EEA6A51
:10590000D890E936EA367F0EE926020EEA22050E25
:10591000EF6E8351E96EEA6AD890E936EA367F0E77
:10592000E926020EEA22EE52EFCF75F109EC06F0FD
:10593000F3CF14F0F4CF15F0166A176A1450020171
:105940000C1909E115500D1906E116500E1903E165
:1059500017500F1900E13DE14EEC73F002010851C0
:10596000065C146E09510758156E0A510858166ED8
:105970000B510958176E1734000E171809E6D88016
:10598000000E1454000E1554000E1654000E175439
:1059900020E28351E96EEA6AD890E936EA367F0E52
:1059A000E926020EEA22EE52EFCF50F1A6EC02F009
:1059B00002018351E96EEA6AD890E936EA367F0E31
:1059C000E926020EEA220B0EEF6E0C01916BD8EF66
:1059D00031F0180517E0090EE76E1819E8AE02D08D
:1059E000E73402D0E750185D01E2C2D00B0EE76E3B
:1059F0001819E8AE02D0183503D0E750D8801855F2
:105A000001E2B6D0090EE76E1819E8AE02D0E7340D
:105A100002D0E750185D23E30B0EE76E1819E8AECD
:105A200002D0183503D0E750D880185518E3A4ECFD
:105A300038F00C018F6F8F5111E102018351E96E33
:105A4000EA6AD890E936EA367F0EE926020EEA22A3
:105A5000070EEF6E0C01916BD8EF31F004D0FBEC28
:105A60003CF00C018F6F020E8F5D1EE1020183512D
:105A7000E96EEA6AD890E936EA367F0EE926020E28
:105A8000EA22EE52EFCF75F109EC06F0F3CF0CF2FB
:105A9000F4CF0DF20201010E0C5F000E0D5B0E6BD8
:105AA0000F6BD8EF31F064D08F0562E102018351B2
:105AB000E96EEA6AD890E936EA367F0EE926020EE8
